:100000000C943F030C945C030C945C030C945C0311
:100010000C945C030C945C030C945C030C945C03E4
:100020000C945C030C945C030C9438190C94F41835
:100030000C94C0290C945C030C945C030C945C033A
:100040000C945C030C945C030C945C030C945C03B4
:100050000C945C030C94151A0C945C030C945C03D4
:100060000C945C030C945C030C945C030C945C0394
:100070000C945C030C945C030C945C030C945C0384
:100080000C945C030C945C030C945C030C945C0374
:100090000C945C030C945C030C945C030C945C0364
:1000A0000C945C030C945C030C945C030000000053
:1000B0000000000000000000000000000000000040
:1000C0000000000000000000000000000000000030
:1000D0000000000000000000000000000000000020
:1000E0000000000000000000000000000000000010
:1000F0000000000000000000000000000000000000
:1001000000000000000000000000000000000000EF
:1001100000000000000000000000000000000000DF
:1001200000000000000000000000000000000000CF
:10013000000000000000000000000000ACFFFFAC69
:10014000FFFFACFFFFACFFFFACFFFFACFFFFACFF5E
:10015000FFACFFFFACFFFFACFFFFACFFFFACFFFF4E
:10016000ACFFFFACFFFFACFFFFACFFFFACFFFFAC91
:10017000FFFFACFFFFACFFFFACFFFFACFFFFACFF2E
:10018000FFACFFFFACFFFFACFFFFACFFFFACFFFF1E
:10019000ACFFFFACFFFFACFFFFACFFFFACFFFFAC61
:1001A000FFFFACFFFFACFFFFACFFFFACFFFFACFFFE
:1001B000FFACFFFFACFFFFACFFFFACFFFFACFFFFEE
:1001C000ACFFFFACFFFFACFFFFACFFFF00FFFF0089
:1001D000FFFF00FFFF00FFFF00FFFF00FFFF00FF2A
:1001E000FF00FFFF00FFFF00FFFF00FFFF00FFFF1A
:1001F00000FFFF00FFFF00FFFF00FFFF00FFFF0009
:10020000FFFF00FFFF00FFFF00FFFF00FFFF00FFF9
:10021000FF00FFFF00FFFF00FFFF00FFFF00FFFFE9
:1002200000FFFF00FFFF00FFFF00FFFF00FFFF00D8
:10023000FFFF00FFFF00FFFF00FFFF00FFFF00FFC9
:10024000FF00FFFF00FFFF00FFFF00FFFF00FFFFB9
:1002500000FFFF00FFFF00FFFF00FFFF00010101A3
:100260000101010101010202020202020202020373
:100270000303030303030304040404040404050543
:100280000505050606060606070707070708080806
:1002900008090909090A0A0A0B0B0B0C0C0C0D0DB5
:1002A0000D0E0E0E0F0F0F1010111111121213134D
:1002B0001414151516161717181819191A1A1B1BC6
:1002C0001C1D1D1E1E1F2020212222232424252622
:1002D00026272829292A2B2C2D2D2E2F303132325A
:1002E000333435363738393A3B3C3D3E3F40414266
:1002F000434445464748494A4C4D4E4F505153544C
:10030000555658595A5B5D5E5F61626465666869FF
:100310006B6C6D6F7072737577787A7B7D7E80827F
:10032000838587888A8C8E8F91939596989A9C9EC8
:10033000A0A2A3A5A7A9ABADAFB1B3B5B7BABCBED8
:10034000C0C2C4C6C9CBCDCFD1D4D6D8DBDDDFE2A5
:10035000E4E7E9EBEEF0F3F5F8FAFDFF29002B00F6
:100360002C04E100E00000001E00140004001D0049
:10037000E2004D001F001A0016001B00E2000151B0
:10038000200008000700060001512C002100150084
:1003900009001900E3004A00220017000A000500C6
:1003A0000000350023003C0000002C0800004C0039
:1003B00024002F000000300000002F0025001C004A
:1003C0000B00110000003000260018000D00100086
:1003D00050004B0027000C000E0036005100280092
:1003E0002D0012000F003700520001512E001300A3
:1003F000330038004F004E002A0031003400E50081
:10040000E400000035000100390001000100000097
:100410003A00010050000100010001003B005200C1
:1004200051000100010001003C0001004F000100EB
:10043000010001003D000100010001000100010078
:100440003E00010001000100000001003F00A90082
:100450000000AA000000010040003B0000003A003C
:100460000000010041000100010001000000010046
:100470004200180D01000100500D010043000C0D59
:1004800001000100510D0251440001000100010072
:10049000520D010045000100010001004F0D010057
:1004A0000100010001000100010000000100010045
:1004B0000100010001000000010001000100010035
:1004C0000100C65C01000100010001000100010003
:1004D0000100010001000100010001000100010014
:1004E000010001000100C55C0100010001000100E4
:1004F00000000A5D01000100000001000000C35C73
:10050000010001000000010000000B5D010001007E
:10051000010001000000C25C0100010001000100B7
:100520000100C95C0100010001000100010001009F
:1005300001000100010001000100010001000100B3
:10054000010001000100CA5C005C01000100010023
:100550000100000005010980A10185031A81002A1C
:100560008300160100260300950175108100C00567
:100570000C0901A10185041A01002A9C0216010040
:10058000269C02950175108100C005010906A10194
:100590008505050719E029E715002501950875016E
:1005A00081020507190029EF1500250195F0750155
:1005B000810205081901290595057501910295012A
:1005C00075039101C005010906A101050719E0297C
:1005D000E7150025019508750181029501750881CF
:1005E000010507190029FF150026FF00950675086B
:1005F00081000508190129059505750191029501EC
:1006000075039101C009023B00020100A0FA090430
:100610000000010301010009211101000122400035
:100620000705810308000A09040100010300000016
:100630000921110100012271000705820320000A2F
:100640001201100100000008EDFE07130100010275
:100650000301040330000000160345007200670028
:100660006F0064006F007800200045005A00000011
:1006700008035A0053004100000004030904112438
:100680001FBECFEFDAE0DEBFCDBF13E0A0E0B1E0E8
:10069000E4EDFCE502C005900D92A037B107D9F753
:1006A00026E0A0E7B3E001C01D92A930B207E1F750
:1006B0000E9404280C94142E0C940000E8EDF0E045
:1006C00080818E7F80831092E2001092DA00109277
:1006D000E100A0EEB0E08C9181608C9380818F77F7
:1006E000808319BCA7EDB0E08C918E7F8C938081C4
:1006F0008F7E80831092C80508952091E400309188
:10070000E50095E6A9012091EC00822F817020FF81
:1007100006C08091E80080FF06C080E00895209127
:10072000E80022FD1AC08091EE05882389F085300B
:1007300089F08091EB0085FD0FC02091E40030919D
:10074000E50042175307F9F29150E1F684E008956D
:1007500082E0089583E0089581E00895EF92FF928A
:100760000F931F93CF937C018B010E947D03C82FB1
:10077000811117C08091E80085FD0BC08091E800D1
:100780008E778093E8000E947D03882399F3C82F19
:1007900008C0F70181917F018093F1000150110998
:1007A00049F78C2FCF911F910F91FF90EF900895F3
:1007B0008091F00587FF13C08091E80082FF06C09A
:1007C0008091E8008B778093E80004C08091EE056B
:1007D0008111F2CF08958091EE058823D9F380919D
:1007E000E80080FFF8CF8091E8008E77ECCF982F5B
:1007F0009093E900242F762F50E0891731F0709103
:10080000EC002091ED005091F00021FD07C09F5FAA
:10081000973071F78093E90081E008953091EB0003
:100820003E7F3093EB003091ED003D7F3093ED0043
:100830003091EB0031603093EB007093EC0020932B
:10084000ED005093F0002091EE0027FDE0CF80E016
:100850000895CF92DF92EF92FF920F931F93CF9361
:10086000DF93C8EDD0E088818F7E8883E7EDF0E0EC
:1008700080818160808384E082BF81E08093C805AD
:1008800088818E7F888302EE10E0F801108210923A
:10089000DA0081EEC82ED12CF601108288818F7784
:1008A000888388818068888388818F7D888319BC4C
:1008B0001092EE051092EF051092ED051092EC05E6
:1008C00090EEE92EF12CF70180818B7F8083888167
:1008D0008160888342E060E080E00E94F703F601D7
:1008E00080818E7F8083F801808181608083808118
:1008F00088608083F70180818E7F8083888180611A
:100900008883DF91CF911F910F91FF90EF90DF903F
:10091000CF900895FC018091F6059091F705861718
:100920009707A0F06115710529F49091E8009E7772
:100930009093E80090E06115710551F4911108C0A1
:100940008091E80082FF34C080E00895BC01F2CFBE
:100950008091EE058823C1F18530C1F18091E800D6
:1009600083FD30C08091E80082FDEACF8091E800ED
:1009700080FFE1CF8091F3002091F200382F6115C4
:10098000710519F02830310558F091E02830310513
:1009900009F090E02091E8002E772093E800CBCF7B
:1009A00081918093F100615071092F5F3F4FE7CF34
:1009B0008091EE05882341F0853041F08091E80078
:1009C00083FFBECF81E0089582E0089583E008951B
:1009D00008958091CB050895CF92DF92EF92FF9218
:1009E0006C01EE24FF2420E0C114D104E104F104E1
:1009F00019F0C701B60120E1C72ED82EE92EFF2439
:100A0000C114D104E104F10419F0285FC701B60153
:100A10006B017C0154E0F694E794D794C7945A95FF
:100A2000D1F7C114D104E104F10419F02C5FC7011E
:100A3000B6016B017C0142E0F694E794D794C79429
:100A40004A95D1F7C114D104E104F10419F02E5FE5
:100A5000C701B6019695879577956795672B682BA3
:100A6000692B09F02F5F822FFF90EF90DF90CF90DE
:100A700008958091840581111092840508958091D4
:100A8000830590918205892B90918105892B809314
:100A90007003909184059923A1F0892B80937003B2
:100AA00080911501882341F18091A50587FF24C01D
:100AB0008EE1E2E7F3E090E0815000F591110E94B1
:100AC0003905E091A705F091A8053097E1F08091F4
:100AD0001501882359F08091A50587FF07C08091F3
:100AE00070038093710385E0809370030280F3812B
:100AF000E02D80E793E0099486E0DBCF219122236B
:100B0000D9F29F5FD9CF0895909115019923D1F023
:100B10009091A50597FF16C0E82FE695E695E69516
:100B2000EE31E0F4F0E0E059FC4F282F277081E02F
:100B300090E001C0880F2A95EAF780959281892379
:100B400082830895E2E7F3E09191891303C0DF0106
:100B500011971C9293E0E837F907B1F70895909147
:100B600015019923C1F09091A50597FF14C0E82FB6
:100B7000E695E695E695EE31F8F4F0E0E059FC4FA5
:100B8000877021E030E001C0220F8A95EAF7828168
:100B9000822B82830895A2E7B3E0EFEF90E02D91DE
:100BA000821751F0EF3F19F4211101C0E92F9F5F27
:100BB0009630A9F7EF3F09F408950E2E000CFF0BB5
:100BC000E059FC4FE6CFE92FEE0FE90FEE0F8E0F45
:100BD000982F977086958695869525E0829FF001DF
:100BE0001124EB5BFA4F50E040E080E0219130E0CF
:100BF000092E02C0369527950A94E2F72170332713
:100C0000042E01C0220F0A94EAF7822B4F5F5F4F38
:100C10004530510559F70895E92FEE0FE90FEE0F12
:100C20008E0F982F977041E001C0440F9A95EAF714
:100C300086958695869595E0899FF0011124EB5B5A
:100C4000FA4F30E020E070E05191DF011197CB01C5
:100C5000022E02C0969587950A94E2F781708195DD
:100C60008527842385278C932F5F3F4F25303105BF
:100C700059F708958091440590911305981301C088
:100C800008958F5F8770FACF882341F08095909107
:100C900082058923809382050C943F05089588235B
:100CA00039F090918205982B909382050C943F0522
:100CB0000895882341F0809590918305892380933E
:100CC00083050C943F050895882339F0909183059E
:100CD000982B909383050C943F0508952091F80478
:100CE0003091F9042817390771F09093F904809333
:100CF000F804E091A705F091A805309721F0008451
:100D0000F185E02D099408952091F6043091F704BF
:100D10002817390771F09093F7048093F604E09157
:100D2000A705F091A805309721F00680F781E02D06
:100D30000994089510928205109281050E943F0542
:100D400090E080E00E94840690E080E00C946E06C3
:100D50006093850570938605809387059093880539
:100D60000C949A06E091A705F091A805309721F020
:100D70000190F081E02D099480E00895882309F422
:100D800052C0823871F40E94B20681FF4CC089E3E0
:100D90000E94AF050E943F0589E30E9484050C94E0
:100DA0003F05833859F40E94B20680FF3CC083E5BA
:100DB0000E94AF050E943F0583E5EFCF843859F4C8
:100DC0000E94B20682FF2FC087E40E94AF050E94F6
:100DD0003F0587E4E2CF9CEF980F913AF0F290E262
:100DE000980F983088F4877021E030E0A90102C0A4
:100DF000440F551F8A95E2F7CA01809590918305AB
:100E0000892380938305CBCF9BE5980F933020F403
:100E100090E080E00C948406885A873120F490E0BA
:100E200080E00C946E060895FA01811101C0FB0167
:100E300009948033910538F5880F991F880F991F01
:100E4000FC01EC5DFE4F5281338180818370E18132
:100E5000A82FB0E070E9879FC001112482559C4FF4
:100E6000E80FF92FF11DB4976083FC01E50FF11D28
:100E7000B4974083830F911DFC01B4972083A45540
:100E8000BC4F81E08C930895FF920F931F93CF93F3
:100E9000DF93182F062FF42ED0E0C0E02F2D402F27
:100EA000612FCE010E9419072196C033D105B1F7F9
:100EB000DF91CF911F910F91FF90089580910006CF
:100EC000837011F410920801809100068C7F81607C
:100ED0008093000608950C9444070C9419070F930F
:100EE0001F9310E0F801EE0FFF1FE052FD4F9081BD
:100EF000905797FD9195000F111FF801EF51FD4F8D
:100F000000810052110B2003F001219FF00D1124EC
:100F100008E310E0091B110997FD139540039001A8
:100F2000419F300D1124E20FF31F9F01220F331F49
:100F30002E0F3F1F37FF02C021583F4F220F232F94
:100F4000221F330B620F1F910F9108950F931F9370
:100F5000522F10E0F801EE0FFF1FEF51FD4FA0815F
:100F6000A052BB0B9D015203F001539FF00D1124C1
:100F7000000F111FD801A052BD4F0C910057110B4B
:100F800040039001419F300D11242E0F3F1F37FF6A
:100F900002C0215C3F4F96E0359527959A95E1F781
:100FA000620F1F910F9108950F931F93522F10E01E
:100FB000F801EE0FFF1FEF51FD4FA081A052BB0BB8
:100FC0009D015203F001539FF00D1124000F111FDA
:100FD000D801A052BD4F0C910057110B4003900156
:100FE000419F300D11242E0F3F1F37FF02C02158A3
:100FF0003F4F220F232F221F330B620F1F910F91A0
:101000000895EF920F93972F23E0029FB0011124D0
:10101000759567956E0D792F0F91EF900895322F8A
:1010200050E0FA01EE0FFF1FEF51FD4F90819052FB
:1010300097FD9195440F551FFA01E052FD4F208115
:10104000231B330B290F311D97FD3A95620F08952D
:10105000E42FF0E0EE0FFF1FEF51FD4F6081621BA8
:101060000895E42FF0E0EE0FFF1FE052FD4F608186
:10107000621B0895622F0895E42FF0E0EE0FFF1F2A
:10108000E052FD4F408134EE439F412D1124E82F63
:10109000F0E050E0445E5F4FDA01A21BB1099D0110
:1010A000B7FF03C031952195310993E0220F331F1B
:1010B0009A95E1F7AF01421B530B9A0157FD20E0CF
:1010C000582F259F212D1124822F0895E42FF0E021
:1010D000EE0FFF1FE052FD4F408134EE439F412D44
:1010E0001124E72FF0E050E0445E5F4FDA01A21BCD
:1010F000B1099D01B7FF03C031952195310993E0F6
:10110000220F331F9A95E1F7AF01421B530B9A014F
:1011100057FD20E0279F212D1124722F0895FC01F7
:101120009B01009729F480E077FF2BC080E80895A9
:10113000AC0197FF04C044275527481B590BB90140
:10114000640F751F37FD10C0241B350BC901A5E0C6
:10115000880F991FAA95E1F70E94DB2A80E2861B7F
:10116000F7FF0FC081950895CB0165E0880F991FA7
:101170006A95E1F7BA01621B730B0E94DB2A80E6D5
:10118000EECF0895EF920F93CF93DF93D72FC82F11
:10119000C9010E19BA010E948F08602F681B7D2FAC
:1011A0008C2FDF91CF910F91EF9008950F93CF93F4
:1011B000DF93D72FC82FC901BA010E948F08682F6B
:1011C000600F7D2F8C2FDF91CF910F910895EF92BB
:1011D0000F931F93CF93DF93D62FC72F182FC901DB
:1011E0000E19010FBA010E948F08081B202F219FA2
:1011F000212D1124822F6D2F7C2FDF91CF911F91F4
:101200000F91EF900895EF920F931F93CF93DF9379
:10121000D62F172FC82FC9010E19070FBA010E9428
:101220008F08702F781B719F712D11246D2F8C2FBB
:10123000DF91CF911F910F91EF9008950F931F931E
:10124000CF93DF93D62FC72F182FC901212F201B33
:10125000022FBA010E948F08982F990F990F891BAE
:10126000800F282F219F212D1124822F6D2F7C2F5D
:10127000DF91CF911F910F9108950F931F93CF93FB
:10128000DF93D62F172FC82FC901272F201B022F1E
:10129000BA010E948F08982F990F990F782F791B08
:1012A000700F719F712D11246D2F8C2FDF91CF91B5
:1012B0001F910F910895E82F86FDE0952E2F2F7036
:1012C00086FD2F5FE695E695E695E670F0E0E45E34
:1012D000FE4F9181929F902D212D112492959F7008
:1012E0002295207F922B2081920F87FD919580E897
:1012F000890F0895AC018230910508F408959FEF9D
:10130000413E8EE1580740F49A0195E036952795C5
:101310009A95E1F798E0920F61E0E62FE90FFF2739
:10132000FF1F9F0135952795822F229FF001239F54
:10133000F00DF00D11244E175F0738F49FEF920F58
:10134000961758F78FEF860F08952F3FE9F361E066
:10135000620FF6CF0F93CF93DF93D72FC82F47FDA0
:10136000419588E390E0841B910947FD9395889F00
:10137000B001899F700D700D1124229FC001239F21
:10138000900D900D1124860F971F0E947A09982FB7
:10139000990F890F682F600F7D2F8C2FDF91CF91D0
:1013A0000F91089530E020E0869F212D969F200D1B
:1013B000311D1124C9010895AF92BF92CF92DF92DF
:1013C000FF920F931F93CF93DF93362F472FE82F72
:1013D000F0E0E45AFD4F71110DC06491762F862F15
:1013E000DF91CF911F910F91FF90DF90CF90BF9031
:1013F000AF900895C72FD0E02491F22E022F10E075
:1014000056E0659FC0011124EFEFF0E0BF010E949C
:10141000C72A832F90E0880F991F35E5369FD001AA
:10142000379FB00D11248A1B9B0B982F990F980F93
:101430006F01CC1ADD0AC09ED001C19EB00DD09EB6
:10144000B00D11248B2F949FA0011124452F5527F7
:101450006F01C41AD50AC09EA001C19E500DD09E36
:10146000500D11245F01A91AB108AC9E6001AD9E18
:10147000D00CBC9ED00C1124CD2CDD24EC19FD0920
:10148000E09FE001E19FD00DF09FD00D1124ED2FE2
:1014900062307105A1F048F46115710569F06130A1
:1014A000710589F0EB2F852F07C06430710571F04D
:1014B00088F066307105B1F76E2F722F91CFE22F51
:1014C0002B2F8D2FF9CFE22F252FF6CFEB2F822F49
:1014D0002D2FF2CF2B2F8F2DE52FEECF9F92AF9296
:1014E000BF92CF92DF92EF92FF920F931F93CF9311
:1014F000DF936C0180911601C82FCC0FCC0FC80F61
:1015000015E01C0FB12E113310F030E3B32E6091B3
:101510000406669566958091F8059091F9050E94FC
:10152000D209F82E80E48F0D0E945B0990E8A92E65
:10153000A80E8F2D0E945B0920E8922E980ED0E015
:10154000CB1580F081E0103308F080E0DF91CF917F
:101550001F910F91FF90EF90DF90CF90BF90AF90D1
:101560009F900895FE01E05CFC4F808190911701EF
:101570008923A1F060910106709102068091030613
:10158000EF2C0C2F292D4A2DF60109950E94DC091C
:10159000462F282F672FCE010E946D072196D0CFAE
:1015A0007F928F929F92AF92BF92CF92DF92EF92F3
:1015B000FF920F931F93CF93DF935C0180911601ED
:1015C000C82FCC0FCC0FC80F15E01C0FF12E113314
:1015D00010F030E3F32E6091040666958091F805D3
:1015E0009091F9050E94D209782ED0E0CF1590F0A5
:1015F00081E0103308F080E0DF91CF911F910F91CF
:10160000FF90EF90DF90CF90BF90AF909F908F9022
:101610007F900895FE01E05CFC4F8081909117015E
:101620008923C9F1CE01880F991F84579D4FFC0172
:10163000EC5AFF4F2081422F4057550B6A018B5ABD
:101640009F4FFC018081282F2052330B4901449F7A
:101650009001459F300D300D1124889CC001899C5C
:10166000900D900D1124820F931F0E947A09082F6C
:10167000609101067091020680910306E72C9401A7
:10168000A601F50109950E94DC09462F282F672F36
:10169000CE010E946D072196A9CFCF92DF92EF92E3
:1016A000FF920F931F93CF93DF937C0180911601DC
:1016B000C82FCC0FCC0FC80F15E01C0FD12E113343
:1016C00010F030E3D32E6091040666958091F80502
:1016D0009091F9050E94D209C82ED0E0CD1568F08E
:1016E00081E0103308F080E0DF91CF911F910F91DE
:1016F000FF90EF90DF90CF900895FE01E05CFC4FEB
:10170000808190911701892311F1CE01880F991FD3
:1017100084579D4FFC01EB5AFF4F20812052330B21
:101720008C5A9F4FFC0140814057550B6091010638
:1017300070910206809103060C2DF70109950E9415
:10174000DC09462F282F672FCE010E946D072196B6
:10175000C5CFDF92EF92FF920F931F93CF93DF934A
:101760007C0180911601C82FCC0FCC0FC80F15E05B
:101770001C0F012F113308F000E3609104066695F9
:1017800066958091F8059091F9050E94D209D82EAE
:10179000D0E0C01760F081E0103308F080E0DF9106
:1017A000CF911F910F91FF90EF90DF900895FE0170
:1017B000E05CFC4F808190911701892391F060914A
:1017C000010670910206809103062D2D4C2FF70122
:1017D00009950E94DC09462F282F672FCE010E9411
:1017E0006D072196D6CF9091A50592FF06C0282FB0
:1017F00028712830F9F4877F846093FF06C0282F72
:1018000028712831F1F4877E84612091A60520FF9C
:1018100006C0382F38713830D9F4877F816021FFB6
:1018200006C0282F28712831D1F4877E816194FD6C
:10183000877E0895282F24712430F9F68B7F8860E5
:10184000DCCF282F2471243101F78B7E8861DDCF16
:10185000382F3171313019F78E7F8860E0CF282F13
:101860002171213121F78E7E8861E1CFCF93DF9303
:10187000972F70E026E0929F600D711D1124FB01EF
:1018800034E5839FE00DF11D1124EE0FFF1FE45A94
:10189000FC4FC591D491CE01C238D105B9F1E8F51C
:1018A000C133D10509F499C050F5C932D10509F405
:1018B0008DC0CA32D10509F497C0C11542E5D407DD
:1018C00008F039C1C11521E5D20708F0B8C1C83EFA
:1018D000D10508F020C1C03ED10568F5C83AD10550
:1018E00008F089C0C53AD10508F07AC1C130D105E8
:1018F00011F1209709F443C02497E8F440C0C533A0
:10190000D10509F45CC0C933D105B9F62091A5050C
:10191000237089F080EE90E00EC0C33ED10591F1B6
:1019200068F4C03ED105F9F0C23ED10531F62091F0
:10193000A50522FD20C0DF91CF910895C63ED105B7
:1019400061F1C73ED10581F1C43ED10509F0B5CFA3
:101950002091A60521FFEFCF8091A50584FD0FC042
:1019600087EE90E0E8CF2091A50520FD98C1309149
:10197000A60530FFE0CF83EE90E024FFDCCF90E0BF
:1019800080E0D9CF2091A50522FD8CC13091A6051C
:1019900030FDC0CF24FFCFCFF2CF2091A50523FF8C
:1019A000CACF24FDECCFDCCF2091A50523FD7DC15E
:1019B0003091A60531FFEECF84EE90E0BCCF2091B0
:1019C000A50525FFB8CF89E290E0B5CF2091A50508
:1019D00025FFB1CF85E390E0AECF2091A50526FF8E
:1019E000AACF8AE290E0A7CF2091A50526FFA3CF3A
:1019F00081E390E0A0CFCF3BD10508F682EE94E4DE
:101A0000C83AD10509F497CF89EE94E4C93AD105D3
:101A100009F491CF8AEE94E4CA3AD10509F48BCF48
:101A200085EB94E4CB3AD10509F485CF86EB94E4B9
:101A3000CC3AD10509F47FCF83EB94E4CB3BD105BD
:101A400009F479CF84EB94E4CC3BD10509F473CF4E
:101A500087EB94E4CD3AD10509F46DCF8CEC94E496
:101A6000C03BD10509F467CF8DEC94E4CE3AD105A3
:101A700009F461CF83E895E4CF3AD10509F45BCF4F
:101A80008AE895E4C13BD10509F455CF82E995E494
:101A9000C23BD10509F44FCF84E995E4C33BD1059E
:101AA00009F449CF81E296E4C43BD10509F443CF60
:101AB00083E296E4C53BD10509F43DCF84E296E488
:101AC000C63BD10509F437CF85E296E4C73BD10583
:101AD00009F431CF86E296E4C83BD10509F42BCF57
:101AE00087E296E4C93BD10509F425CF8FE694E45B
:101AF000CD3BD10509F41FCF80E794E4CE3BD1055F
:101B000009F419CF80E094E4CA3BD10509F013CF62
:101B10008AE296E410CFC11530E5D30708F073C010
:101B2000C11540E4D40708F06AC0DA95C115DF4159
:101B300008F401CF24CFC11536E5D30718F5C11538
:101B400045E5D40708F091C0C11584E5D80708F031
:101B500087C09C2F96959695AE0143705527C11569
:101B6000D34508F471C021E030E002C0220F331FDA
:101B70004A95E2F740E2949FC0011124822B932BF7
:101B80009A68D9CEC1153AE5D30778F4C11549E56D
:101B9000D40708F074C0C11588E5D80708F4EFCE63
:101BA0009C2F8827806F906AC6CEC1159BE5D90708
:101BB00008F4E5CECE01C1152CE5D20708F46CC0BF
:101BC00090568115904208F0DACE8D2F8F710E94C9
:101BD000F30B90E0982F882788279F718C2B4DC09E
:101BE00081E890E4C53AD10509F4A5CE82E890E4F5
:101BF000C63AD10509F49FCE83E890E49CCECE018D
:101C00009F70906A98CE9E01E4E036952795EA95FC
:101C1000E1F723708C2F86958695837040E2849F30
:101C2000C0011124922BC37021E030E002C0220FCA
:101C3000331FCA95E2F7822B932B9C687CCE9C2F96
:101C40008827816F906A77CE21E030E002C0220FB2
:101C5000331F4A95E2F740E2949FC0011124EBCF75
:101C60009C2F8827846F906A66CE8C2F0E94F30B7E
:101C700090E0982F882788279F7190625CCE8C2FE8
:101C80008F700E94F30B34E0D695C7953A95E1F733
:101C9000CF709C2F90694FCE992790664CCE89E3E8
:101CA00090E049CE82EE90E046CE86EE90E043CEC4
:101CB000BF92CF92DF92EF92FF920F931F93CF9339
:101CC000DF938C01C0907C05D0907D05E0907E056F
:101CD000F0907F058091850590918605A0918705FC
:101CE000B0918805C82AD92AEA2AFB2ACFE1D0E098
:101CF000BC2ED701C6010C2E04C0B695A7959795AA
:101D000087950A94D2F780FD0EC0219788F7B12CF1
:101D10008B2DDF91CF911F910F91FF90EF90DF906E
:101D2000CF90BF900895B8018C2F0E94360C019778
:101D300061F3EECFCF93DF93EC010E94580EBE010A
:101D4000DF91CF910C94360C0E949A0E292F2F70A0
:101D500092959F7092509E3078F4E92FF0E0EA5E01
:101D6000F14D0C94EF2A803F19F020F4883E20F4C6
:101D700081E00895843FE1F380E00895883EC0F358
:101D8000813FD1F7F5CF822F869586958695089568
:101D90009F92AF92BF92CF92DF92EF92FF920F93FA
:101DA0001F93CF93DF9320E9289FE001299FD00D57
:101DB0001124C455DF4F10E000E0FE01649131961C
:101DC000749131968491962F972B982BC1F420E033
:101DD00040E060E0C8010E946D070F5F1F4F23962F
:101DE0000033110551F7DF91CF911F910F91FF90B3
:101DF000EF90DF90CF90BF90AF909F9008950E949A
:101E0000DC09962EB72EA82E6091030670E090E0B4
:101E100080E00E94EE2B20E030E04FE753E40E9488
:101E20004D2B6B017C016A2D70E090E080E00E94F8
:101E3000F02BA70196010E947C2C0E94BF2BA62E9E
:101E4000692D70E090E080E00E94F02BA7019601E0
:101E50000E947C2C0E94BF2B962E6B2D70E090E090
:101E600080E00E94F02BA70196010E947C2C0E942A
:101E7000BF2B2A2D492DAECF40E060E080E00E94CC
:101E80006B0781E08093C905089527982F980895DE
:101E900026982E98089525982D98089556985E981E
:101EA0000895279A2F9A0895269A2E9A0895259A8A
:101EB0002D9A0895CF92DF92EF92FF92CF936B010C
:101EC0007C010E94EC04C82F0E944E0F0E944B0F11
:101ED0000E94480F0E94450FC150C73040F4EC2FBC
:101EE000F0E0EC5DF14D0C94EF2A0E94570FC70112
:101EF000B601CF91FF90EF90DF90CF9008950E94B0
:101F0000570F0E94540FF3CF0E94570F0E94510F9A
:101F1000EECF0E94570F0E94540FF8CF0E945A0F25
:101F200060937C0570937D0580937E0590937F057B
:101F30000C949A060F931F9341E050E060E070E02C
:101F400004C0440F551F661F771F8A95D2F7CB0137
:101F5000BA01609570958095909500917C051091DF
:101F60007D0520917E0530917F05602371238223BA
:101F700093231F910F910C948E0F90918005809563
:101F8000892380938005282F277071F4282F082E2D
:101F9000000C330B9217130639F0859585958595BE
:101FA0000E949A0F1092800508950F931F9341E0AD
:101FB00050E060E070E004C0440F551F661F771FBB
:101FC0008A95D2F780917C0590917D05A0917E0540
:101FD000B0917F058A019B01082B192B2A2B3B2BE3
:101FE000C901B8011F910F910C948E0F84B1807FAD
:101FF00084B985B1807F85B98AB1837F8AB98BB175
:10200000837F8BB93E984698089580B38C7080BBCF
:1020100081B3836F81BB0895CF9384E090E00E94E9
:10202000052BC82F81E290E00E94052B982F8C2F62
:10203000CF910895CF93DF9300D00F92CDB7DEB745
:102040009C019091EE05943019F599833B832A8386
:1020500082E08093E9008FEF9091E800815095FD38
:1020600006C095ED9A95F1F700008111F5CF8091AA
:10207000E80085FF0DC050E040E063E070E0CE0175
:1020800001960E94AE038091E8008E778093E8006D
:102090000F900F900F90DF91CF910895CF93DF9322
:1020A00000D00F92CDB7DEB72091EE05243031F588
:1020B00023E02983805891099B838A8382E080935F
:1020C000E9008FEF9091E800815095FD06C095EDF5
:1020D0009A95F1F700008111F5CF8091E80085FF16
:1020E0000DC050E040E063E070E0CE0101960E9438
:1020F000AE038091E8008E778093E8000F900F90F8
:102100000F90DF91CF910895CF93DF93EC018091F1
:10211000EE058430B9F5809115018823B1F18091E5
:10212000A50587FF32C060E282E08093E9008FEF6F
:102130009091E800815095FD06C095ED9A95F1F7D4
:1021400000008111F5CF8091E80085FF1BC08091D0
:10215000150170E050E040E0811104C050E040E023
:1021600068E070E0CE010E94AE038091E8008E77B7
:102170008093E80080E2FE01ACECB5E001900D92A6
:102180008A95E1F7DF91CF91089568E081E0CDCFA6
:10219000882309F402C18238B9F40E94B20681FD95
:1021A000FCC089E30E94AF050E943F052FEF81EE3E
:1021B00094E0215080409040E1F700C0000089E3A6
:1021C0000E9484050C943F058338A1F40E94B20656
:1021D00080FDE3C083E50E94AF050E943F052FEF1D
:1021E00081EE94E0215080409040E1F700C0000073
:1021F00083E5E6CF8438A1F40E94B20682FDCDC00B
:1022000087E40E94AF050E943F052FEF81EE94E026
:10221000215080409040E1F700C0000087E4D0CF1B
:102220009CEF980F913A18F40E94AF05CBCF90E243
:10223000980F983068F4877021E030E001C0220FD9
:102240008A95EAF780918305822B80938305BACF24
:102250009BE5980F933070F4853A31F0863A39F067
:1022600083E890E00C94840681E890E0FBCF82E85C
:1022700090E0F8CF98E5980F973108F08EC0883A33
:1022800009F446C0893A09F446C08A3A09F446C0BE
:102290008B3A09F446C08C3A09F446C08B3B09F4EA
:1022A00046C08C3B09F446C08D3A09F446C0803BD9
:1022B00009F446C08E3A09F446C08F3A09F446C084
:1022C000813B09F446C0823B09F446C0833B09F4D4
:1022D00046C0843B09F446C0853B09F446C0863BB2
:1022E00009F446C0873B09F446C0883B09F446C060
:1022F000893B09F446C08D3B09F446C08E3B09F486
:1023000046C08A3B09F446C090E080E00C946E061B
:1023100082EE90E0FBCF89EE90E0F8CF8AEE90E07D
:10232000F5CF85EB90E0F2CF86EB90E0EFCF83EB3B
:1023300090E0ECCF84EB90E0E9CF87EB90E0E6CF44
:102340008CEC90E0E3CF8DEC90E0E0CF83E891E07F
:10235000DDCF8AE891E0DACF82E991E0D7CF84E956
:1023600091E0D4CF81E292E0D1CF83E292E0CECF70
:1023700084E292E0CBCF85E292E0C8CF86E292E0A1
:10238000C5CF87E292E0C2CF8FE690E0BFCF80E773
:1023900090E0BCCF8AE292E0B9CF0895CF93C82FE6
:1023A0000E94C810C93349F42FEF87EE93E0215003
:1023B00080409040E1F700C000008C2FCF910C943A
:1023C000BE06EF92FF920F931F93CF93DF930E946D
:1023D0004E0F0E944B0F0E94480F0E94450F88E845
:1023E000E82EF12C8FEF90E0F701918380830AE8CB
:1023F00010E0F80191838083CCE8D0E09983888352
:102400000E94570FFFEF20E782E0F150204080400C
:10241000E1F700C000000E94540F9FEFE0E7F2E0F8
:102420009150E040F040E1F700C000000E94510FE1
:102430002FEF80E792E0215080409040E1F700C00C
:1024400000000E944B0FEFEFF0E722E0E150F04078
:102450002040E1F700C000000E94480F8FEF90E796
:10246000E2E081509040E040E1F700C000000E94AF
:10247000450F809193058770FFEF8F9FC001112456
:1024800095958795959587959927F70191838083F1
:10249000F80191838083998388830E944E0F0E9464
:1024A0004B0F0E94480FDF91CF911F910F91FF902A
:1024B000EF900C94450F60918F058CE090E00C94A8
:1024C000292B6FEE7EEF90E080E00E94472B60E0CA
:1024D00082E090E00E94292B60E083E090E00E947F
:1024E000292B10928505109286051092870510926F
:1024F000880560E084E090E00E94292B60E081E2A2
:1025000090E00E94292B60E085E090E00E94292B5A
:1025100060E086E090E00E94292B6FEF87E090E07A
:102520000E94292B40E050E0BA0188E090E00E9430
:102530003B2B60E08DE090E00E94292B40E050E0D2
:10254000BA0188E190E00E943B2B60E087E190E0D7
:102550000E94292B40E050E0BA018CE190E00E94FB
:102560003B2B60E080E290E00E94292B10929305C3
:1025700010929405109295051092960584E0806162
:102580008093930540919305509194056091950532
:10259000709196058FE090E00E943B2B40E050E068
:1025A000BA0183E190E00C943B2B1092830580915B
:1025B0001501E2E7F3E0882359F08091A50587FF34
:1025C00007C08EE1DF011D928A95E9F70C949A0607
:1025D00086E0F8CF1F93CF93DF93CDB7DEB7AA97EE
:1025E0000FB6F894DEBF0FBECDBF80EF95E020910F
:1025F000F100FC012193CF01F5E0883F9F07B9F777
:102600008091F105833009F46FC0B8F4813009F48A
:1026100046C0823009F4B0C08091E80083FF87C2D1
:102620008091F0059091F1059A3008F080C2E92F71
:10263000F0E0E55DF14D0C94EF2A8A3009F48BC08F
:102640008B3009F46EC0893039F78091F005813202
:1026500019F78091F4059091F5050297E8F68091BD
:10266000E800877F8093E8008091E80082FF37C010
:102670009091F3008091F200029729F48091F1008B
:102680008B7F813021F48091F1008093CB05809184
:10269000E8008B778093E8000E94D803BDCF80913B
:1026A000F005813A09F0B8CF8091E800877F8093E8
:1026B000E8008091F4059091F505892B61F460E2C2
:1026C0008CEC95E070E00E948A048091E8008B77A2
:1026D0008093E800A1CF60E090E080E0F3CF8091AC
:1026E000EE058111C1CF98CF8091F005813A09F0B4
:1026F00093CF8091F4059091F505892B09F08CCF4B
:102700008091E800877F8093E8008091E80080FF57
:10271000FCCF809115018093F1008091E8008E77C5
:10272000B9CF8091F005813209F076CF8091F40520
:102730009091F505892B09F06FCF8091E800877F94
:102740008093E8000E94D8038091F20580931501E0
:102750000E94D51261CF8091F005813209F05CCFE3
:102760008091E800877F8093E8000E94D8038091E1
:10277000F3058093CA0550CF8091F005813A09F0A6
:102780004BCF8091E800877F8093E8008091E8003C
:1027900080FFFCCF8091CA05BECF803899F0823887
:1027A00009F0C5C18091F4058F70873008F0BFC172
:1027B0008093E9008091EB0085FB882780F91092D7
:1027C000E90006C08091EC059091ED0591118260C1
:1027D0009091E800977F9093E8008093F100109229
:1027E000F1008091E8008E779EC1882309F48CC1A6
:1027F000823009F09CC18091F20581118FC18091D6
:10280000F4058F702FEF280F263008F090C18093C9
:10281000E9002091EB0020FF81C1933031F48091D9
:10282000EB0080628093EB0079C19091EB009061A6
:102830009093EB0021E030E001C0220F8A95EAF787
:102840002093EA001092EA008091EB008860EACFC2
:1028500081116DC11091F2051F778091E30080789E
:10286000812B8093E3008091E800877F8093E800CC
:102870000E94D8038091E80080FFFCCF8091E300A4
:1028800080688093E30082E0111183E08093EE057D
:102890004EC18058823008F04AC18091F205909173
:1028A000F3058C3D23E09207A1F583E08A838AE259
:1028B00089834FB7F894DE01139620E03EE051E2A1
:1028C000E32FF0E050935700E49120FF03C0E2951E
:1028D000EF703F5FEF708E2F90E0EA30C0F0C79648
:1028E0008D939D932F5F243159F74FBF8091E8005E
:1028F000877F8093E8006AE270E0CE0101960E9433
:102900008A048091E8008B778093E80010C1C0961C
:10291000E7CF4091F4055091F505292F3327233057
:10292000310509F445C078F52130310509F47BC043
:102930008BE390E0E5E0F6E02230310509F0F7C0E6
:102940002091E800277F2093E8002091F605309140
:10295000F7058217930708F49C0140E02115310523
:1029600009F070C041116EC08091E80082FDC9CFAE
:102970008091EE05882329F2853019F28091E800D4
:1029800083FFF2CFBECF2132310509F440C022329D
:10299000310509F0CCC04115510509F44EC0413054
:1029A000510509F0C4C081E790E0E4E5F5E0C8CF47
:1029B000992781309105D9F0009771F08230910507
:1029C000F1F0039709F0B3C0E2E5F6E0E4918E2F51
:1029D00090E0E2E5F6E007C0EAE7F6E0E4918E2F4A
:1029E00090E0EAE7F6E0009709F4A1C0A9CFE0E79C
:1029F000F6E0E4918E2F90E0E0E7F6E0F4CFE8E532
:102A0000F6E0E4918E2F90E0E8E5F6E0ECCF41159A
:102A1000510571F04130510509F089C089E090E01D
:102A2000E0E3F6E08DCF82E190E0E0E4F6E088CFED
:102A300089E090E0E7E1F6E083CF80E490E0E5EC28
:102A4000F5E07ECF8091EE05882309F45ACF8530DA
:102A500009F457CF8091E80083FD53CF8091E800BF
:102A600082FD82CF8091E80080FF78CF9091F300C3
:102A70008091F2002115310519F08830910550F050
:102A800041E0089709F040E08091E8008E7780935C
:102A9000E80064CF44914093F10031962150310910
:102AA0000196E8CF803809F042C08091E800877F26
:102AB0008093E8008091EF058093F10092CE811120
:102AC00036C01091F205123090F58091E800877FB2
:102AD0008093E8001093EF050E94D803112311F0B2
:102AE00084E005C08091E30087FDFACF81E0809308
:102AF000EE0542E061EC81E00E94F70342E261EC06
:102B000082E00E94F70313C08091F205813079F4CE
:102B100081E0933009F080E08093ED051092E900A8
:102B20008091E800877F8093E8000E94D80380911D
:102B3000E80083FF0AC08091E800877F8093E80067
:102B40008091EB0080628093EB00AA960FB6F89418
:102B5000DEBF0FBECDBFDF91CF911F9108950F93C0
:102B60001F93CF93DF93082F000FEB0114E2109314
:102B70009803E9E9F3E0DE018D91819383E0E93A7E
:102B8000F807D1F724E630E041E150E068E973E06E
:102B9000802F0E949C2A105F6096143B41F7DF91C2
:102BA000CF911F910F9108958091AC03882329F054
:102BB0006EEA73E084E70E94AF151092AC03809137
:102BC000AD03882329F06EE374E087E70E94AF1518
:102BD0001092AD030895E8E9F3E06083418324E6B1
:102BE00030E042E050E0BF01880F0C949C2A0F9324
:102BF0001F93CF93DF93082FE62FF0E0EE50FB4FAB
:102C00008081882379F082E1689FE0011124C2531A
:102C1000DB4F10E04991612F802F0E94EB151F5F61
:102C20001231C1F7DF91CF911F910F910895CF938A
:102C3000DF93C82F4BE06DEF0E94EB1540E06AE098
:102C40008C2F0E94EB158FE39CE90197F1F700C0F0
:102C5000000040E060E08C2F0E94EB1540E061E056
:102C60008C2F0E94EB1540E066E08C2F0E94EB1544
:102C700040E06DEF8C2F0E94EB15D0E040E06D2F0F
:102C80008C2F0E94EB15DF5FD231C1F740E06D2F32
:102C90008C2F0E94EB15DF5FD432C1F740E06D2F1F
:102CA0008C2F0E94EB15DF5FD43BC1F74BE06DEF3B
:102CB0008C2F0E94EB1541E06AE08C2F0E94EB15EF
:102CC00040E06DEF8C2FDF91CF910C94EB156F925C
:102CD0007F928F929F92AF92BF92CF92DF92EF92AC
:102CE000FF920F931F93CF93DF930E94E72984E70E
:102CF0000E94171687E70E94171664E2E62E61E02D
:102D0000F62ED12CC12C72E1772EE8E08E2E912C7C
:102D1000AA24A394B12C66246394F701418150E066
:102D2000CA01849702810452110BC381C452DD0B86
:102D3000F601EE0FFF1FEE0FFF1FEC5DFE4F20812F
:102D4000237030E0FC0197FD379643E0F595E79559
:102D50004A95E1F7729EA001739E500D11244253D3
:102D60005B4FE40FF52FF11DB4010E94DB2AA50192
:102D700001C0440F8A95EAF78081842B8083F80193
:102D800017FD379693E0F595E7959A95E1F7729ED2
:102D9000C001739E900D112482539B4FE80FF92FB1
:102DA000F11DC801B4010E94DB2AA50101C0440F36
:102DB0008A95EAF78081842B8083FE01D7FD3796C0
:102DC00083E0F595E7958A95E1F7729EC001739EC1
:102DD000900D112482539B4FE80FF92FF11DCE0166
:102DE000B4010E94DB2AA50101C0440F8A95EAF7CD
:102DF0008081842B80832E503B4FF9016082FFEF4E
:102E0000CF1ADF0A84E0E80EF11CE0E3CE16D1040D
:102E100009F083CF60E084E70E94F71561E087E75F
:102E2000DF91CF911F910F91FF90EF90DF90CF90A6
:102E3000BF90AF909F908F907F906F900C94F715FC
:102E400045E050E06CE170E080E096E00C94192BD6
:102E500080910006982F969596959F5F9F7383703B
:102E6000953148F4990F990F892B809300061092A1
:102E700008010C9420178460F8CF809100068450DC
:102E800080930006982F9C7F21F483708065809347
:102E90000006109208010C942017E0E0F6E0818112
:102EA000885F81830C942017E0E0F6E081818850F0
:102EB00081830C942017E0E0F6E0228130E1230FBB
:102EC00008F42FEF22830C942017E0E0F6E0228133
:102ED00030E1231B08F420E022830C942017E0E06B
:102EE000F6E0238130E1230F08F42FEF23830C94C5
:102EF0002017E0E0F6E0238130E1231B08F420E016
:102F000023830C942017E0E0F6E0248130E1230FC6
:102F100008F42FEF24830C942017E0E0F6E02481DE
:102F200030E1231B08F420E024830C9420179091B7
:102F3000000696959695981720F0961710F40C9425
:102F40002817982F990F990F809100068370892B6D
:102F500080930006109208010C942017E0E0F6E040
:102F60008DE280838091190190911A01A0911B013B
:102F700081839283A3838FE784830C9420170E941C
:102F8000671690E080E00E94132B8F3E9E4F21F049
:102F90000E9461120E94AE1745E050E06CE170E0C3
:102FA00080E096E00E94F52A809100068C7F11F463
:102FB0000C94AE17089580E290E090930A018093FC
:102FC00009018091970381110EC00E94E72981E0D9
:102FD000809397032FEF83ED90E321508040904042
:102FE000E1F700C0000064E670E080E40E94ED2993
:102FF00090930A0180930901892B09F04EC064E681
:1030000070E080E00E94492A90930A0180930901B0
:10301000892B09F042C064E670E080E00E94492AF2
:1030200090930A0180930901892BB9F564E670E059
:103030008FE30E94492A90930A0180930901892B0A
:1030400061F50E94C32A64E670E080E40E94ED29E5
:1030500090930A0180930901892BF9F464E670E0EA
:103060008CE00E94492A90930A0180930901892BE0
:10307000A1F464E670E080E00E94492A90930A017E
:1030800080930901892B49F464E670E08FE30E9484
:10309000492A90930A01809309010E94C32A8091D2
:1030A00009010895CF93C82F873070F580910901E9
:1030B00090910A01892B89F564E670E080E40E9412
:1030C000ED2990930A0180930901892BD1F464E6DC
:1030D00070E082E10E94492A90930A0180930901DD
:1030E000892B79F481E090E001C0880FCA95EAF756
:1030F00064E670E080950E94492A90930A018093CB
:103100000901CF910C94C32A8A30B9F040F4883079
:1031100071F0893079F0209A2898CF9108958C30F9
:1031200091F070F08D30B9F73E9A4698F6CF219A1B
:103130002998F3CF229A2A98F0CF239A2B98EDCF93
:10314000529A5A98EACF539A5B98E7CFCF93873039
:1031500008F040C08091090190910A01C0E0892BDC
:1031600071F464E670E080E40E94ED2990930A0116
:1031700080930901892B31F0C0E00E94C32A8C2F73
:10318000CF91089564E670E083E10E94492A90930C
:103190000A0180930901892B79F764E670E081E4E4
:1031A0000E94ED2990930A0180930901892B21F750
:1031B00084E690E00E94782A97FF05C090930A0168
:1031C00080930901D9CFC82FC09510920A0110929F
:1031D0000901D3CFCFB18FB1869586958C73C3701B
:1031E0008C2BC82FC095CBCF1F920F920FB60F928A
:1031F00011242F933F934F935F936F937F938F93FC
:103200009F93AF93BF93CF93DF93EF93FF93D091AF
:10321000E900DF708091EC00C82FC17080FDC0E82C
:103220001092E9008091F000877F8093F0007894FD
:103230000E94EA121092E9008091F0008860809369
:10324000F000CD2BCF70C093E900FF91EF91DF919B
:10325000CF91BF91AF919F918F917F916F915F912E
:103260004F913F912F910F900FBE0F901F90189587
:103270001F920F920FB60F9211242F933F934F93EB
:103280005F936F937F938F939F93AF93BF93EF93CE
:10329000FF938091E10082FF09C08091E20082FFEC
:1032A00005C08091E1008B7F8093E1008091DA007E
:1032B00080FF24C08091D80080FF20C08091DA0078
:1032C0008E7F8093DA008091D90080FFA1C080E1D9
:1032D00089BD82E189BD09B400FEFDCF81E0809304
:1032E000EE058091C805811109C00E945E030E940D
:1032F00029048091E20084608093E2008091E100E3
:1033000080FF17C08091E20080FF13C08091E2002F
:103310008E7F8093E2008091E20080618093E200E2
:103320008091D80080628093D80019BC85E080939A
:10333000EE058091E10084FF2FC08091E20084FFC0
:103340002BC080E189BD82E189BD89B5982F91703C
:1033500080FFFBCF8091D8008F7D8093D800809133
:10336000E1008F7E8093E1008091E2008F7E809368
:10337000E2008091E20081608093E2008091EF059D
:10338000882309F44BC084E08093EE050E94D51297
:103390000E94B2061092C9058091E10083FF27C008
:1033A0008091E20083FF23C08091E100877F8093BA
:1033B000E10082E08093EE051092EF058091E1003C
:1033C0008E7F8093E1008091E2008E7F8093E20007
:1033D0008091E20080618093E20042E060E080E062
:1033E0000E94F7038091F00088608093F000FF91C5
:1033F000EF91BF91AF919F918F917F916F915F916D
:103400004F913F912F910F900FBE0F901F901895E5
:1034100019BC1092EE051092C80570CF8091E300A0
:1034200087FD93E09093EE05B1CF78941F921FB67D
:103430001F9211248F939F93AF93BF93809189051F
:1034400090918A05A0918B05B0918C050196A11DE4
:10345000B11D8093890590938A05A0938B05B09345
:103460008C05BF91AF919F918F911F901FBE1F90B0
:1034700018952FB7F8948091890590918A05A091AD
:103480008B05B0918C052FBF0895CF92DF92EF92FC
:10349000FF920F931F93CF93DF93C62F142F022F0A
:1034A000FC0182818823C1F0609309050E94391ACA
:1034B0009093F5048093F404C77081E001C0880FF5
:1034C000CA95EAF7DF91CF911F910F91FF90EF908E
:1034D000DF90CF900C94640680910905861351C04B
:1034E0002091F4043091F5044FB7F8948091890548
:1034F00090918A05A0918B05B0918C054FBF6C010E
:103500007D01EE24FF24A90170E060E0821B930B93
:10351000C416D506E606F70608F40197883C91051F
:1035200080F5D0E2D10FC117B9F080E28C0F88305E
:1035300040F4C77081E001C0880FCA95EAF70E9485
:103540005906D83048F481E0912F977001C0880F58
:103550009A95EAF70E946406802F0E94CE11D83017
:10356000B8F4177081E001C0880F1A95EAF7DF916F
:10357000CF911F910F91FF90EF90DF90CF900C941F
:103580005906C77081E001C0880FCA95EAF7EFCFEE
:10359000DF91CF911F910F91FF90EF90DF90CF902F
:1035A00008954F925F926F927F928F929F92AF9207
:1035B000BF92CF92DF92EF92FF920F931F93CF9320
:1035C000DF9300D000D00F92CDB7DEB76C01FC01C5
:1035D00083819481892B39F01081F180812F8F2193
:1035E0008F3F09F026C70F900F900F900F900F900C
:1035F000DF91CF911F910F91FF90EF90DF90CF90CF
:10360000BF90AF909F908F907F906F905F904F9002
:1036100008950E94580E082F682F89819A810E9470
:103620000C06E12FF0E026E0F29EE00DF11D1124E2
:1036300034E5039FE00DF11D1124EE0FFF1FE45A46
:10364000FC4F05911491F60182810930FDE51F07B9
:1036500009F43FC00A302DE5120709F440C1023CCD
:103660003CE5130709F061C1882309F4BCCF9091B0
:103670001701809193059F3F09F050C110921701E7
:103680008F7E8093930540E060E080E00E946B07AE
:103690004091930550919405609195057091960520
:1036A0008FE090E00F900F900F900F900F90DF91B0
:1036B000CF911F910F91FF90EF90DF90CF90BF902F
:1036C000AF909F908F907F906F905F904F900C94F1
:1036D0003B2B882309F44EC08091930591E0980F0D
:1036E0009770887F953008F4892B8093930580919B
:1036F00093058770EFEF8E9FC001112495958795F4
:103700009595879599279093890080938800909349
:103710008B0080938A0090938D0080938C00409161
:1037200093055091940560919505709196058FE0F1
:1037300090E00E943B2B60917C0570917D0580910B
:103740007E0590917F050E945A0FF60182818823A1
:1037500089F0033EFCE51F0709F408C108F0F2C038
:10376000013E3CE5130709F4FAC0023E8CE5180758
:1037700009F4FAC017FF27C1F6018281882309F4F2
:103780004DC0809183058093080510928305809138
:103790008F05813009F4F2C0882309F4EBC0823030
:1037A00009F4F9C0843009F4FDC08FE39CE9019766
:1037B000F1F700C000005801E894B7F84CE0E42E9F
:1037C000F12C95010E2C02C0369527950A94E2F74C
:1037D0002F7087E290E031F0822F90E02A3008F0DD
:1037E000E6C04D960E94CE1194E0E91AF108ECEF84
:1037F000EE16EFEFFE0629F780918F05813009F470
:10380000DCC0882309F4D5C0823009F4D2C08430EA
:1038100009F4D7C08091080580938305F6012281C1
:10382000222309F41CC3109209050230FCE51F078E
:1038300008F4EAC106313CE5130730F0C8018A5F9D
:103840009C45079708F0E0C10E940C109093A605D4
:103850008093A5050F308CE5180709F4B6C108F070
:1038600037C10830ECE51E0709F499C108F00AC118
:1038700004302CE5120709F486C108F0F2C00230CA
:103880008CE5180709F47BC18091A505826003309F
:103890001C4509F409C16091A5051091A60584E0B5
:1038A00090E00E94292B612F81E290E00E94292B59
:1038B0000F900F900F900F900F90DF91CF911F916D
:1038C0000F91FF90EF90DF90CF90BF90AF909F90BF
:1038D0008F907F906F905F904F900C94D5128823BB
:1038E00009F448CF90919305892F877F93FF8860D3
:1038F0008093930583FF05C040E060E080E00E9474
:103900006B074091930550919405609195057091D6
:1039100096058FE090E00E943B2B17CF9FEF90938E
:103920001701806180939305B3CE0B30FDE51F072F
:1039300009F00BCF882309F456CE809100068370DE
:10394000846075C1043E9CE5190791F084E0053E52
:10395000ECE51E0709F00ECF80938F0502C0109290
:103960008F050E945B1206CF81E0F6CF82E0F4CF94
:1039700083E0F2CF82EE0E94C81017CF83E00E944E
:103980004F0688E10E94C81088E10E94BE0683E0CD
:103990000E9444060ACF82EE0E94C81087E50E946A
:1039A000CE1103CF86EE0E94CE1188E1F8CF0697A4
:1039B00019CF82EE0E94BE062DCF8CE20E94CE115E
:1039C00029CF88E2FBCF033FFCE51F07D9F140F583
:1039D000083D3CE5130791F1093D8CE51807F1F12D
:1039E000073D9CE5190709F019CF26E241EE61EE8B
:1039F000C6010F900F900F900F900F90DF91CF9115
:103A00001F910F91FF90EF90DF90CF90BF90AF90FC
:103A10009F908F907F906F905F904F900C94451A7D
:103A2000053FECE51E07B1F088F0063F2CE51207D4
:103A300009F0F4CE27E245EE66EEDACF27E245EE56
:103A400065EED6CF26E241EE60EED2CF27E245EE1C
:103A500064EECECF26E241EE62EECACF28E241E02C
:103A6000EFCF8091A50580610630ECE51E07E1F0FF
:103A70008091A505886007301C45B0F08091A505B0
:103A8000806212C00B302CE5120709F496C078F45E
:103A900009308CE5180709F486C08091A5058C6073
:103AA0000A301C4509F0F7CE8093A505F4CE80912D
:103AB000A5058B7F0D30ECE51E07B1F38091A505C0
:103AC0008D7F0E301C4580F38091A505877FECCF5C
:103AD0000A3F2CE5120709F45AC048F502318CE57B
:103AE000180709F47AC060F40031ECE51E0709F408
:103AF00070C08091A5058F7B01311C45A9F2CBCE0A
:103B000004312CE5120709F476C008F46CC00531C5
:103B10001C4509F0C0CE8091A50582FB992790F93C
:103B200021E0922790FB82F990FB83F9BDCF0D3FF6
:103B30009CE5190709F445C070F40B3FFCE51F072D
:103B400051F18091A6058E7F0C3F1C4509F0A3CE54
:103B50008093A605A0CE0F3F3CE5130709F447C0AC
:103B600040F101151D4509F096CE8091A605982FCC
:103B7000909591708E7F892B90FB81F9E9CF809190
:103B8000A505816091CF8091A50584608DCF80913E
:103B9000A6058160DDCF8091A6058260D9CF809196
:103BA000A505806481CF0E94D5128091A50580680B
:103BB0007BCF8091A6058360CBCF8091A5058E7FBA
:103BC00073CF8091A6058D7FC3CF8091A5058F7E91
:103BD0006BCF8091A5058F7D67CF0E94D512809114
:103BE000A5058F7761CF8091A505837F5DCF8091FB
:103BF000A6058C7FADCF0E94D5129091A505892F87
:103C000097FB87F9805850CF90918305892F827256
:103C1000F801E25CFC45E431F10508F09DC0EB5C85
:103C2000F14D0C94EF2A8091000691E08927809352
:103C30000006109208010F900F900F900F900F90B8
:103C4000DF91CF911F910F91FF90EF90DF90CF9078
:103C5000BF90AF909F908F907F906F905F904F90AC
:103C60000C9420174DE357E168E277E10F900F9035
:103C70000F900F900F90DF91CF911F910F91FF90B8
:103C8000EF90DF90CF90BF90AF909F908F907F90FC
:103C90006F905F904F900C94140748E257E16DE3EA
:103CA00077E1E4CF44E557E16DE477E1DFCF4DE420
:103CB00057E164E577E1DACF45E657E16BE577E177
:103CC000D5CF4BE557E165E677E1D0CF49E757E13E
:103CD0006FE677E1CBCF4FE657E169E777E1C6CFF3
:103CE0004DE857E163E877E1C1CF43E857E16DE87C
:103CF00077E1BCCF65E082E00F900F900F900F90BE
:103D00000F90DF91CF911F910F91FF90EF90DF9077
:103D1000CF90BF90AF909F908F907F906F905F906B
:103D20004F900C94971768E086E0E6CF6EE089E04C
:103D3000E3CF64E18FE0E0CF67E185E1DDCF809103
:103D400000068370806673CF62E289E1D5CF8091EF
:103D5000000683708C686BCF0115ECE51E0759F1E6
:103D60000E3DFCE51F0709F463C006311C4509F050
:103D70007AC09A7A81E009F480E080930A0589E2AA
:103D8000911185E30E94AF050F900F900F900F9057
:103D90000F90DF91CF911F910F91FF90EF90DF90E7
:103DA000CF90BF90AF909F908F907F906F905F90DB
:103DB0004F900C943F050E94D5122FEF34E38CE016
:103DC000215030408040E1F700C00000F89481E0CD
:103DD0008093E00080E28093D8001092C900EFE168
:103DE000FEE43197F1F700C000001DBA10926800A0
:103DF0001CBC10BE1FBA10927A0010926E00109276
:103E00006F0010927100109272001092C90010920F
:103E1000BC0014B817B81AB81DB810BA1092BC007C
:103E200015B818B81BB81EB811BA0C94003FDBCBFC
:103E30000F900F900F900F900F90DF91CF911F91E7
:103E40000F91FF90EF90DF90CF90BF90AF909F9039
:103E50008F907F906F905F904F900C94611206311D
:103E60001C4509F43FC0F60100811181222309F4A9
:103E700043C0C8010E94580EF82E682FC8010E9446
:103E80000C06B8018F2D0E94360C8C01B82EF6015D
:103E9000E580E2943FE0E322F280F1101092820587
:103EA00080918005877079F0FF2069F080E2800FB3
:103EB000883048F082E00E94BD0F809180058770B5
:103EC000AA24A3948111A12C912E92942FE09222E6
:103ED000FBE0F91508F44AC0E92DF0E0E75BF14D8D
:103EE0000C94EF2A80910A05811104C089E20E9496
:103EF00084054ACF85E3FBCFC8010E94E305F82E75
:103F0000C0CF212F2F70E22E107F19F0E29490EF96
:103F1000E922FF20C9F0EE2069F080E2800F8830AE
:103F200010F0B1100BC080918305E82AE092830560
:103F30000E943F05802F0E94C81018C08091820502
:103F4000E82AE0928205F4CF802F0E94BE06EE2080
:103F500069F0E094005E083010F0B1103CC0809130
:103F60008305E822E09283050E943F05292D285011
:103F7000330B2430310510F40E94B206AA2009F454
:103F800032CB8091800580FD2ECBF6011282859583
:103F9000859585950E94D50FC6010E94D11A809102
:103FA00080058595859585950F900F900F900F90C2
:103FB0000F90DF91CF911F910F91FF90EF90DF90C5
:103FC000CF90BF90AF909F908F907F906F905F90B9
:103FD0004F900C949A0F80918205E822E09282051E
:103FE000C3CF312F3F70832E107F103219F082948F
:103FF00080EF8822802FBB2041F091E0B91631F18B
:10400000FF2079F1EE2041F195CFFF2091F09091C2
:104010008405892F8829E11003C00E946406A6CF79
:10402000E1E0EE12FACF891709F4A0CF809384055E
:104030009DCFE11006C00E943905882D0E945906C7
:1040400095CFF1E0EF1609F491CFF5CFFF2031F0D5
:1040500021E02E1508F48ACF882DDFCFE11086CF1E
:10406000ECCFEE2051F3893349F43FEF87EE93E034
:10407000315080409040E1F700C00000802F0E9446
:10408000BE0674CF812F86958695837061F081304E
:1040900009F06CCFC8019370F11002C090E080E08D
:1040A0000E946E0663CFC8019370F11002C090E0C9
:1040B00080E00E9484065ACF812F837009F066C089
:1040C000F11054CF802F829586958770880F880FC6
:1040D000602F6F70462E512C712C612C082E04C05D
:1040E000440C551C661C771C0A94D2F740E050E043
:1040F000BA0104FF0FC04FE050E060E070E004C080
:10410000440F551F661F771F8A95D2F7409550952B
:1041100060957095812F869586958370823019F110
:10412000D8F400918505109186052091870530917E
:104130008805813069F04429552966297729CB0102
:10414000BA0160237123822393230E94A8060ECF15
:10415000402A512A622A732ACB01BA01642975299F
:1041600086299729F2CF4429552966297729009174
:104170008505109186052091870530918805CB0132
:10418000BA016027712782279327DFCF8695FF200A
:1041900011F0812F8170882309F4E8CE802F829559
:1041A00086958770880F880F602F6F70462E512C70
:1041B000712C612C082E04C0440C551C661C771C05
:1041C0000A94D2F740E050E0BA0104FF0FC04FE07C
:1041D00050E060E070E004C0440F551F661F771F79
:1041E0008A95D2F74095509560957095812F869568
:1041F00086958370823019F1D8F400917C05109176
:104200007D0520917E0530917F05813069F044293C
:10421000552966297729CB01BA01602371238223AE
:1042200093230E948E0FA2CE402A512A622A732A1B
:10423000CB01BA016429752986299729F2CF44292F
:1042400055296629772900917C0510917D052091DB
:104250007E0530917F05CB01BA0160277127822747
:104260009327DFCF1F70FF2029F0812F0E94D50FE9
:10427000802FD3CE802F0E945906812F0E949A0F43
:1042800075CE802FE2EFBE1609F44EC0EB1578F024
:10429000F0EFBF1619F121EFB21609F43DC0FF206F
:1042A00009F465C0E11046CE812F8F713AC033EF1B
:1042B000B31609F43EC094EFB912F1CFFF2009F410
:1042C0004BC01F71812F0E94D50FF8E01F9FC001C6
:1042D0001124836080938005812F23C0FF20B9F0D3
:1042E000E11044CE1F7161E070E080E090E004C016
:1042F000660F771F881F991F1A95D2F700917C05CA
:1043000010917D0520917E0530917F05A6CFE1E0DB
:10431000EE1508F42BCEE6CF812F8F71FF2009F424
:10432000ADCF0E94D50F22CE812F8F71FF20C9F310
:10433000A5CF60E070E0CB01FF2009F472CF1F71C0
:1043400061E070E080E090E004C0660F771F881F96
:10435000991F1A95D2F765CF81E00E94BD0F21E029
:104360002E1508F003CE82E00E94BD0FFFCDE110B4
:104370007ACE812F8F7182CFE2EFBE16D1F1EB158D
:1043800000F1F0EFBF1649F121EFB216D1F18091A3
:104390000B05EE2009F441C0882341F080910C0503
:1043A00091E0892780930C0510920B05802FF11066
:1043B000C2CD0E94BE0686E0F60111928A95E9F709
:1043C000D5CD34EFB316C1F0B31688F085EFB8122F
:1043D000DECFF110CBCD81E007C0FF2009F4C6CDC0
:1043E00080910C0591E0892780930C05BFCD81E079
:1043F000F826F0920C05BACDF110B8CD10920C054C
:10440000B5CDFF2039F080910B05882349F3109238
:104410000B05ACCDEE2021F3A9CD882309F4A6CD60
:10442000F110A4CD80910C0591E0892780930C05B3
:10443000EECF85E0DE01119601900D928A95E1F7AD
:10444000F601228189819A812111E3C80E94E30546
:10445000082FE7C81F93CF93DF9380911205807FC9
:10446000C1F480910F058823A1F080914405C0918B
:10447000130560910D0570910E0540911005509146
:104480001105D62FD723DA01A095B09516E0C813F1
:1044900004C0DF91CF911F91089590E0411551051F
:1044A00011F0DF3F31F401968770F1CF2A0F3B1FE7
:1044B00017C0189FF001199FF00D1124EC5EFA4F00
:1044C00021812713F0CF20812613EDCF22812111E6
:1044D000EACF238134812417350740F3241B350BA1
:1044E000283C310500F7209112052F7020612093A0
:1044F000120526E0289FF001299FF00D1124E75EA8
:10450000FA4F80818F70806180838DE095E00E94FA
:10451000D11ADF91CF911F910C943A06BF92CF929E
:10452000DF92EF92FF920F931F93CF93DF93CDB75C
:10453000DEB761970FB6F894DEBF0FBECDBF8C011A
:1045400085E0F801DE011D9601900D928A95E1F754
:10455000D8012C9111963C9111971296EC901297DC
:104560008091100590911105009709F463C1409165
:104570000D0550910E05642F65236F3F09F45AC154
:104580001396CD90DC90B0900F05BB2009F413C1B9
:10459000C816D906C0F1F601E81BF90BCF01FF24BC
:1045A000F394883C910508F0F12C80911205982F26
:1045B000907FFF2009F4C1C091117DC0FE2C5313E0
:1045C00027C0421325C0E11023C08F708061809303
:1045D00012058DE095E00E94D11A80911205D80154
:1045E00015968C938F2D61960FB6F894DEBF0FBE93
:1045F000CDBFDF91CF911F910F91FF90EF90DF9092
:10460000CF90BF900895809590958C0D9D1DC7CF3C
:10461000CD2829F0822F83238F3F09F035C180E018
:10462000B82FB170DB2E80FF3CC0809144054091D3
:10463000130556E0841315C02D873E878D859E8512
:104640000E949A0E292F22952F702230F0F02430EC
:1046500018F59F70F1F0F8019581907FD1F4D12C7D
:104660001EC090E0589FF001599FF00D1124EC5EA0
:10467000FA4F6181361306C06081261303C0628140
:10468000E6120FC001968770D5CF9F7011F0882376
:1046900031F3805E883018F3C8010E94D11AFD2CD6
:1046A000A1CFEE2009F49ECF809112058160809306
:1046B0001205F12C97CF531313C0421311C0E11010
:1046C0000FC0D80115968C93C8010E94D11A86E0BC
:1046D000F801ADE0B5E001900D928A95E1F782CF47
:1046E0002D873E878D859E850E94A40E882309F123
:1046F000EE20F9F080911205803270F020910D05C6
:1047000030910E0538872F831986DB86CA868C8701
:10471000CE0107960E94D11A86E0F801ADE0B5E01F
:1047200001900D928A95E1F70E942A22FF24F394CA
:1047300059CFC8010E94D11AF9CF91110CC08DE058
:1047400095E00E94D11A86E0EDE0F5E0DF011D92D0
:104750008A95E9F747CF531312C0421310C0E110F6
:104760000EC0F8018583C8010E94D11AEDE0F5E082
:1047700086E0DF011D928A95E9F7FB2C33CF2D8768
:104780003E878D859E850E94A40E882391F2EE209F
:1047900081F280911205803208F4BECF20910D0580
:1047A00030910E053A8329831B82DD82CC828E8371
:1047B000CE010196AFCFC816D90640F0C81AD90A63
:1047C000B8ECCB16D10448F0F12CBDCF8095909574
:1047D0008C0D9D1D883C9105B8F7FE2CEE2009F448
:1047E000A8CF531316C0421314C08091120580FD48
:1047F0006ECF982F907F09F46ACFF8018583903FA0
:1048000009F462CF982F907F905F8F70892B8583FA
:104810005BCF2D873E878D859E850E94A40E8111DA
:104820007BCF80911205816080931205C8010E94A0
:10483000D11AD8CEEE2009F47CCF2D873E878D8506
:104840009E850E94A40EF82E882309F472CF86E07C
:10485000F801ADE0B5E001900D928A95E1F7809105
:104860000D0590910E050E949A0E92959F709630BC
:1048700041F480910C0591E0892780930C05909379
:104880000B050E942A22AECE81E08E25C9CE1F9351
:10489000CF93DF93CDB7DEB767970FB6F894DEBF3F
:1048A0000FBECDBF6D8B7E8B8F8B8E899F89892BA1
:1048B000E1F0852F84238F3F09F098C05FEF4FEF21
:1048C00014C030910C05332309F44EC0E42FF0E0FE
:1048D00036E0539FE00DF11D1124EE0FFF1FEC5148
:1048E000FE4F40815181822B8C931A8A198A4B8BFF
:1048F0005C8B85E0FE017396DE011D9601900D92A2
:104900008A95E1F786E0FE013D96DE01179601905B
:104910000D928A95E1F7CE0107960E948E228111B1
:1049200012C086E0FE013796DE01119601900D92CD
:104930008A95E1F78A859B85892B29F08F81988557
:1049400089238F3FC9F516E08091440590911305A6
:10495000891320C067960FB6F894DEBF0FBECDBF97
:10496000DF91CF911F91089580958223BDCF96E06E
:10497000929FD001939FB00D1124AC5EBA4FFE01FF
:10498000319601900D929A95E1F7809313050E945C
:104990003A06D9CF819FC00111248C5E9A4F0E94A4
:1049A0008E228823B9F28091440590E001968770A9
:1049B000992780934405C8CF2091130530E0C901A1
:1049C000019687709927409144054817190679F692
:1049D0000E94D512109213051092440586E0EDE076
:1049E000F5E0DF011D928A95E9F7ADCF81E090E017
:1049F000042E01C0880F0A94EAF7A52FB0E0A65054
:104A0000BB4F2C913D8931115CCF322F38235BCFC6
:104A10008F929F92AF92BF92CF92DF92EF92FF92CE
:104A20000F931F93CF93DF938091090190910A0117
:104A3000892BA1F0809196038F5F8093960381115B
:104A40000DC00E94DB1790E090930A01809309014A
:104A5000892B21F40E94BF170E94E111D7E9ED2EA6
:104A6000D5E0FD2E6701C0E010E007E00C0F8C2FB1
:104A70000E945218802F0E9452188C2F0E94A61854
:104A8000F60191916F01D0E0891719F03197808379
:104A9000D1E0802F0E94A618F6019681891709F4AB
:104AA00063C0868381E08D2B182B0E94F60FCF5FA9
:104AB000C730D9F60E94391A6AEF70E00E94C72AFF
:104AC000B82FA0919103AA2309F411C21092910367
:104AD000E0918D05F0918E054F012EE0820E911C24
:104AE00040E00BEFCAEFCC2ED12C51915B3F81F00F
:104AF000652F70E02B2F392F8517C0F1261B370B40
:104B00002E313105CCF19F0121503109E901088393
:104B10008E169F0651F740939103111102C0411167
:104B2000E8C110929003A0918D05B0918E0520915F
:104B30009103EAEAF5E090E04191E70139917E01C5
:104B4000431741F04C914B3FC9F48C93EF012197EF
:104B5000388321E01196D5E0E83BFD0769F7209303
:104B6000910390939003C9C180E09DCFE601C61BDD
:104B7000D70B2C0F3D1FC4CF4A2FCACF91E0EACFED
:104B80000197A109B109D2C1840F951FA61FB71FB4
:104B900003C2109216018092F8059092F905A09236
:104BA000FA05B092FB0581E080930801F1101EC266
:104BB0008091930583FD1AC260917C0570917D05FB
:104BC00080917E0590917F050E94EC04813009F46C
:104BD00086C1823009F488C180911701811106C213
:104BE00040E060E00E946B0701C28091070108135A
:104BF00016C09091000693702091060130E081E08C
:104C00009217130609F480E0817080931801053132
:104C100010F5E02FF0E0EB5AF14D0C94EF2A81E013
:104C2000F3CF882309F442C080911601C82FCC0F1E
:104C3000CC0FC80FA5E0EA2EEC0EDE2CF0E3FE153B
:104C400010F4F0E3DF2ED0E0CD1538F081E0EFE294
:104C5000BE2EBE1458F580E029C020E040E060E0A0
:104C6000CE010E946D072196EFCF80911601C82FCB
:104C7000CC0FCC0FC80F75E0E72EEC0EDE2C20E336
:104C80002E1510F460E3D62E609101067091020695
:104C9000809103060E94DC09C62EB72EA82ED0E014
:104CA000CD15C0F081E09FE29E15A8F2909116010B
:104CB0009F5F90931601811192C182E08093080159
:104CC0008091180181118BC1011189C183E080930A
:104CD000080185C1FE01E05CFC4F808190911701C5
:104CE000892331F02A2D4C2D6B2DCE010E946D07AA
:104CF0002196D6CF80911601C82FCC0FCC0FC80FAC
:104D000055E0E52EEC0ECE2CD0E3DE1510F440E39A
:104D1000C42EB0900206A09003062091040630E451
:104D2000D32E3D2D329F312D1124D32ED0E0CC1522
:104D300008F0B8CFFE01E05CFC4F80819091170134
:104D40008923B9F0FE01EE0FFF1FEF51FD4F808167
:104D500082958F70609101068D9D600D11247B2DD1
:104D60008A2D0E94DC09462F282F672FCE010E9432
:104D70006D072196DCCF80911601C82FCC0FCC0F88
:104D8000C80F95E0E92EEC0EDE2CD0E3DE1510F412
:104D900080E3D82EC0900106D0910206B0900306A1
:104DA000609104066695669566958091F8059091E8
:104DB000F9050E94D2090E945B09805887FD819500
:104DC000880F282F3B2D239F212D1124822F6C2DFE
:104DD0007D2F0E94DC09C62EB72EA82ED0E0CD155F
:104DE00008F060CFFE01E05CFC4F808190911701DC
:104DF000892331F02A2D4C2D6B2DCE010E946D0799
:104E00002196EDCF86E698E00E94A90B4FCF8CE368
:104E100098E0FACF8DE399E00E944D0B47CF8EE1E9
:104E200099E0FACF83E099E00E94D00A3FCF87EE65
:104E300098E0FACF8AE398E0E7CF81E398E0E4CF07
:104E400088E298E0E1CF8FE098E0DECF81E098E063
:104E5000EBCF8AEA99E0E0CF86ED98E0DDCF82ECF7
:104E600098E0E2CF84ED97E00E946E0A1FCF86EAB9
:104E700097E0FACF8FE697E0F7CF00930701809194
:104E800000068370809306010E94D4151FCF4091C5
:104E9000F8055091F9056091FA057091FB052FB75F
:104EA000F8948091890590918A05A0918B05B09125
:104EB0008C052FBF84179507A607B70760F0841BE2
:104EC000950BA60BB70B4A97A105B10508F487C04F
:104ED0001092080184C00197A109B109F0CF81E0C7
:104EE00090E00E94C80E82C082E090E0FACF1111DB
:104EF00018CE90919003911114CE4091920350914D
:104F0000930360919403709195032FB7F894809167
:104F1000890590918A05A0918B05B0918C052FBFD2
:104F200084179507A607B70708F42ACE841B950BAC
:104F3000A60BB70B2FB7F8948090890590908A053F
:104F4000A0908B05B0908C052FBF80929203909219
:104F50009303A0929403B09295034091FC05509165
:104F6000FD056091FE057091FF054F3FEFEF5E0775
:104F70006E077E07C9F0AA27BB276C017D01C0948C
:104F8000D094E094F094C416D506E606F70608F02F
:104F9000FBCD8FEF9FEFDC018093FC059093FD0527
:104FA000A093FE05B093FF05F090C90500E0F11055
:104FB00008C080910006082F037019F0082F06958D
:104FC000069580910801813009F40FCE882309F4F9
:104FD000E0CD823009F451CF833009F458CFF1107D
:104FE00005C08091C905882309F4E2CD812FDF91A6
:104FF000CF911F910F91FF90EF90DF90CF90BF90D6
:10500000AF909F908F900895CDB7DEB72A970FB6D7
:10501000F894DEBF0FBECDBF84B7877F84BF0FB6C5
:10502000F894A89580916000886180936000109248
:1050300060000FBE80E890E00FB6F89480936100A6
:10504000909361000FBE85B7806885BF85B7806883
:1050500085BF0E945E030E9429048091E200846063
:105060008093E20078948091EE058823A1F010915E
:10507000E9001F709091EC00892F817090FD80E80D
:10508000182B1092E9008091E80083FD0E94EA123B
:105090001F701093E90082E084BD93E095BD9AEF04
:1050A00097BD80936E000E94DB1790E090930A01F9
:1050B000809309010E94F60F0E940510A7E9B5E050
:1050C000EAEAF5E011921D9225E0E83BF207D1F7FC
:1050D0008EE090E00E94E92C80938D0590938E05E0
:1050E000FC010E962BEF2193E817F907E1F790E00A
:1050F00080E00E94132B8F3E9E4F11F00E946112A0
:105100000E94BF178CE090E00E94052B90E0B0E079
:10511000A0E080938F0590939005A0939105B093A4
:10512000920589EA8093800089E080938100249829
:105130002C983F988AB18F7C8AB96E98479A8BB128
:1051400080638BB9769A8FE090E00E940D2B60937C
:1051500093057093940580939505909396056770D9
:105160008FEF869FB00111247595679575956795AA
:105170007727709389006093880070938B00609309
:105180008A0070938D0060938C009091930594FF3A
:1051900079C0809317010E94E11190E080E00E94A5
:1051A000132B8F3E9E4F11F00E94611282E090E01F
:1051B0000E94052B8093B9050E940C109093A605C0
:1051C0008093A50583E090E00E94052B682F70E096
:1051D00090E080E00E94A8060E945E070E945E07A1
:1051E0000E9420178BE091E09093A8058093A7057B
:1051F000EE24EA9480E1A82E92E1B92E28E1C22E95
:10520000D12C30E4932E8091EE05853009F43DC019
:105210000E940825EAEBF5E0AAEAB5E010E000E01C
:10522000302F8D912191281709F480C090E0FF2440
:10523000F3942827422F4F2109F473C099833A83AE
:105240008F2191E009F490E09B830E94391A8160DC
:10525000782F9D838C8349815A816B818D810E9437
:105260004724F801E654FA4F8081F826F0820E9424
:10527000B2069091B805891731F20E94B206809368
:10528000B805C1CF1092170186CF0E943C0F8091C4
:10529000EE05843019F11092A9050FB6F894A8957F
:1052A000C09260000FBE909260000E943C0F83B7D6
:1052B000817F846083BF83B7816083BF7894889542
:1052C00083B78E7F83BF0FB6F894A8958091600056
:1052D000886180936000109260000FBE8091ED05A0
:1052E000882309F490CF0E94DB1790E090930A0185
:1052F000809309010E94F60F0E940510EAEAF5E08A
:10530000119285E0E83BF807D9F70E940825EAEA00
:10531000F5E08191811120C025E0E83BF207C9F753
:1053200072CF9F5FFF0C963009F084CF0F5F1F4F45
:105330000E30110509F074CFEE82EF8218860E94BC
:10534000391A8160782F9A8789874E815F816885B5
:105350008A850E9447248BCFA9BCB9BC09B400FE42
:10536000FDCF8091D8008F7D8093D8008091E000A0
:1053700082608093E0008091E00081FDFCCF43CF0C
:105380001F921FB61F9211248F939F93AF93BF93C9
:105390008091A905811113C08091890590918A059A
:1053A000A0918B05B0918C054196A11DB11D8093F4
:1053B000890590938A05A0938B05B0938C05BF91C6
:1053C000AF919F918F911F901FBE1F9018951092C3
:1053D000B9008CE08093B8000895EF92FF920F938C
:1053E0001F93CF93DF93182FEB011092BC0084EA38
:1053F0008093BC000E94391A7C018091BC0087FF19
:1054000027C08091B900887F883029F08091B90049
:10541000887F8031D9F51093BB0084E88093BC006D
:105420000E94391A8C018091BC0087FF24C0209112
:10543000B900287F90E080E02831B1F081E090E071
:10544000203411F490E080E09195819591090CC091
:10545000CF3FDC0791F20E94391A8E199F098C17F1
:105460009D0758F28EEF9FEFDF91CF911F910F9123
:10547000FF90EF900895CF3FDC07A9F20E94391A00
:10548000801B910B8C179D0770F2ECCF8FEF9FEF75
:10549000EBCF0F931F93CF93DF93EB018093BB0070
:1054A00084E88093BC000E94391A8C018091BC0072
:1054B00087FF11C02091B900287F81E090E0283259
:1054C00011F490E080E0919581959109DF91CF9161
:1054D0001F910F910895CF3FDC0741F30E94391AC5
:1054E000801B910B8C179D0708F38EEF9FEFEECF7B
:1054F0000F931F93CF93DF93EC0184E88093BC005C
:105500000E94391A8C018091BC0087FF08C08091ED
:10551000BB0090E0DF91CF911F910F910895CF3F95
:10552000DC0789F30E94391A801B910B8C179D07A9
:1055300050F38EEF9FEFEECFCF92DF92EF92FF927C
:105540000F931F93CF93DF936B018A017901B90108
:105550000E94ED29E6010C0D1D1DC017D10761F455
:1055600024E92093BC00DF91CF911F910F91FF9010
:10557000EF90DF90CF90089597FDF2CFB70189911A
:105580000E94492AEACF84E98093BC000895AA1BAF
:10559000BB1B51E107C0AA1FBB1FA617B70710F01E
:1055A000A61BB70B881F991F5A95A9F78095909550
:1055B000BC01CD01089597FB072E16F4009407D087
:1055C00077FD09D00E94C72A07FC05D03EF49095CC
:1055D00081959F4F0895709561957F4F0895EE0FC7
:1055E000FF1F0590F491E02D0994DC01CB01FC0133
:1055F000F999FECF06C0F2BDE1BDF89A319600B42C
:105600000D9241505040B8F70895F999FECF92BDE0
:1056100081BDF89A992780B50895A6E1B0E044E0ED
:1056200050E00C94F72AA8E1B0E042E050E00C947E
:10563000F72ADC01A40FB51F4150504048F0CB01C0
:10564000840F951F2E910E942A2B41505040D0F775
:105650000895262FF999FECF92BD81BDF89A019742
:1056600000B4021639F01FBA20BD0FB6F894FA9AAA
:10567000F99A0FBE08950396272F0E942A2B0E94A5
:10568000292B252F0E942A2B242F0C942A2B01969C
:10569000272F0E942A2B0C94292B0E94612B0C94FB
:1056A000422C0E943B2C58F00E94342C40F029F4EC
:1056B0005F3F29F00C942B2C51110C94762C0C94F8
:1056C000312C0E94532C68F39923B1F3552391F3A5
:1056D000951B550BBB27AA2762177307840738F061
:1056E0009F5F5F4F220F331F441FAA1FA9F335D0BE
:1056F0000E2E3AF0E0E832D091505040E695001C72
:10570000CAF72BD0FE2F29D0660F771F881FBB1F2B
:10571000261737074807AB07B0E809F0BB0B802D09
:10572000BF01FF2793585F4F3AF09E3F510578F035
:105730000C942B2C0C94762C5F3FE4F3983ED4F31E
:10574000869577956795B795F7959F5FC9F7880F09
:10575000911D9695879597F90895E1E0660F771F5B
:10576000881FBB1F621773078407BA0720F0621BEC
:10577000730B840BBA0BEE1F88F7E09508950E9417
:105780005B2C88F09F5798F0B92F9927B751B0F04C
:10579000E1F0660F771F881F991F1AF0BA95C9F7B5
:1057A00014C0B13091F00E94752CB1E008950C94B2
:1057B000752C672F782F8827B85F39F0B93FCCF365
:1057C000869577956795B395D9F73EF49095809532
:1057D000709561957F4F8F4F9F4F0895E89409C052
:1057E00097FB3EF490958095709561957F4F8F4F14
:1057F0009F4F9923A9F0F92F96E9BB279395F6952A
:10580000879577956795B795F111F8CFFAF4BB0FA7
:1058100011F460FF1BC06F5F7F4F8F4F9F4F16C00B
:10582000882311F096E911C0772321F09EE8872F95
:10583000762F05C0662371F096E8862F70E060E051
:105840002AF09A95660F771F881FDAF7880F9695CA
:10585000879597F9089597F99F6780E870E060E071
:1058600008959FEF80EC089500240A9416161706F9
:1058700018060906089500240A9412161306140641
:1058800005060895092E0394000C11F4882352F0A4
:10589000BB0F40F4BF2B11F460FF04C06F5F7F4F5C
:1058A0008F4F9F4F089557FD9058440F551F59F043
:1058B0005F3F71F04795880F97FB991F61F09F3FFD
:1058C00079F087950895121613061406551FF2CF26
:1058D0004695F1DF08C0161617061806991FF1CF76
:1058E00086957105610508940895E894BB2766279D
:1058F0007727CB0197F908950E948F2C0C94422CA6
:105900000E94342C38F00E943B2C20F0952311F09B
:105910000C942B2C0C94312C11240C94762C0E947A
:10592000532C70F3959FC1F3950F50E0551F629F64
:10593000F001729FBB27F00DB11D639FAA27F00DE8
:10594000B11DAA1F649F6627B00DA11D661F829F0F
:105950002227B00DA11D621F739FB00DA11D621FF4
:10596000839FA00D611D221F749F3327A00D611D11
:10597000231F849F600D211D822F762F6A2F1124F3
:105980009F5750409AF0F1F088234AF0EE0FFF1F26
:10599000BB1F661F771F881F91505040A9F79E3F7D
:1059A000510580F00C942B2C0C94762C5F3FE4F383
:1059B000983ED4F3869577956795B795F795E795D3
:1059C0009F5FC1F7FE2B880F911D9695879597F9DC
:1059D00008950F931F93CF93DF938230910510F4B6
:1059E00082E090E0E0910706F091080630E020E0C8
:1059F000B0E0A0E0309799F42115310509F447C0D3
:105A0000281B390B24303105C0F58A819B81611533
:105A1000710571F1FB0193838283FE0111C0408106
:105A200051810281138148175907F8F04817590727
:105A300099F4109761F012960C93129713961C9399
:105A40003296CF01DF91CF911F910F91089500936E
:105A5000070610930806F4CF2115310519F04217F7
:105A6000530718F49A01BD01EF01DF01F801C2CF1D
:105A70009093080680930706D0CFFE01E20FF31F34
:105A8000819391932250310939832883DACF209171
:105A9000050630910606232B41F420910201309136
:105AA00003013093060620930506209100013091F2
:105AB00001012115310541F42DB73EB74091040194
:105AC00050910501241B350B4091050650910606A7
:105AD0004217530708F0B5CF241B350B2817390799
